:020000040800F2
:100000000080012091110008F9030008FB0300089B
:10001000FD030008FF0300080104000800000000C1
:1000200000000000000000000000000003040008C1
:100030000504000800000000070400080904000887
:10004000E1110008E1110008E1110008E1110008C8
:10005000E1110008E1110008E1110008E1110008B8
:10006000E1110008E1110008E1110008E1110008A8
:10007000E1110008E1110008E1110008E111000898
:10008000E1110008E1110008E11100080000000082
:10009000000000000000000000000000E111000866
:1000A000E1110008E1110008E1110008E111000868
:1000B000E1110008E1110008E1110008E111000858
:1000C000E1110008E1110008E1110008E111000848
:1000D000E1110008E1110008E11100080000000032
:1000E000E1110008E1110008E11100080000000022
:1000F000000000000000000000000000E111000806
:1001000000000000E1110008E1110008E111000801
:1001100000000000000000000000000000000000DF
:10012000E1110008E1110008E1110008E1110008E7
:10013000E1110008000000000000000000000000C5
:10014000000000000000000000000000E1110008B5
:10015000E1110008E1110008E1110008E1110008B7
:10016000E1110008E111000800000000000000009B
:10017000000000000000000000000000000000007F
:1001800000000000E1110008000000000000000075
:04019000E111000871
:1001940053B94AB9002908BF00281CBF4FF0FF31EA
:1001A4004FF0FF3000F00CB8ADF1080C6DE904CE4F
:1001B40001F042F8DDF804E0DDE9022304B0704701
:1001C400704700BF10B5054C237833B9044B13B105
:1001D4000448AFF300800123237010BD0C000020FD
:1001E40000000000E814000808B5034B1BB10349E4
:1001F4000348AFF3008008BD000000001000002099
:10020400E814000830B589B00024039404940594DC
:10021400069407940194174B1A6B42F004021A6374
:100224001A6B02F004020192019A02941A6B42F0D2
:1002340001021A631B6B03F001030293029B0E4D30
:1002440022462021284600F0DCFE4FF4005303939D
:100254000494059403A9094800F0F6FD20230393B0
:10026400012304930594069403A9284600F0ECFDA9
:1002740009B030BD003802400000024000080240CE
:1002840072B6FEE700B58BB000230893099301937F
:100294000293039304930593069307931F484FF027
:1002A400804202604FF4FA52426083604FF4FA7263
:1002B400C2600361836100F0D7F918BB002308937F
:1002C400099308A9154800F089FAE8B96023019355
:1002D400002202920392059201A9104800F010FA3C
:1002E400A0B904210E4800F085FE012810D0012297
:1002F40020210C4800F085FE084800F0B9F80BB046
:100304005DF804FBFFF7BCFFFFF7BAFFFFF7B8FF88
:1003140000222021034800F074FEEDE728000020AD
:10032400000802400000024000B595B030220021D0
:1003340008A800F079FF0023039304930593069320
:1003440007930193194A116C41F080511164126CA6
:1003540002F080520192019A029315490A6822F42C
:10036400404242F400420A600A6802F440420292A7
:10037400029A0222089201220B9210220C920E93EE
:1003840008A800F069FA68B90F23039300210491C7
:1003940005910691079103A800F0A6FC20B915B0B9
:1003A4005DF804FBFFF76CFFFFF76AFF00380240BB
:1003B4000070004008B500F0AFFEFFF7B5FFFFF78F
:1003C40021FFFFF75FFF04E000222021074800F02F
:1003D40018FE0421064800F00DFE0128F4D0012285
:1003E4002021024800F00DFEF3E700BF00000240A8
:1003F40000080240FEE7FEE7FEE7FEE7FEE770477F
:100404007047704708B500F0A1FE08BD82B0002116
:1004140000910B4B5A6C42F480425A645A6C02F4B9
:1004240080420092009A01911A6C42F080521A6440
:100434001B6C03F080530193019B02B0704700BF13
:10044400003802400368B3F1804F00D0704782B097
:1004540000230193054B1A6C42F001021A641B6CD1
:1004640003F001030193019B02B07047003802407E
:1004740000B587B00023019302930393049305937B
:100484000368B3F1804F02D007B05DF804FB00238A
:1004940000930A4B1A6B42F001021A631B6B03F0C0
:1004A40001030093009B012301930222029205930E
:1004B40001A9034800F0C8FCE6E700BF0038024089
:1004C4000000024070B4036A23F001030362036A6C
:1004D4004668826922F073020C6844EA020523F03C
:1004E40002028B6813430D4CA04209D00B4CA0426E
:1004F4000DD0466085614A684263036270BC7047F0
:1005040023F00803CA68134323F00403EEE726F438
:1005140040764A6932438E691643EAE70000014097
:1005240030B4036A23F480730362036A4568C269C2
:1005340022F073020C68224323F400738C6843EAAC
:1005440004230F4CA04209D00D4CA0420ED04560AC
:10055400C2614A68C263036230BC704723F400631B
:10056400CC6843EA042323F48063EDE725F4405583
:100574004C6945EA04158C6945EA0415E7E700BFB0
:100584000000014030B4036A23F480530362036A19
:100594004468C26922F4E6420D6842EA052223F463
:1005A40000538D6843EA0533074DA84206D04460E2
:1005B400C2614A680264036230BC704724F4804418
:1005C4004D6944EA8514F2E7000001400368254AB6
:1005D40090420ED0B0F1804F0BD0A2F57C429042F5
:1005E40007D002F58062904203D002F58062904207
:1005F40003D123F070034A6813431A4A90421AD075
:10060400B0F1804F17D0A2F57C42904213D002F58E
:10061400806290420FD002F5806290420BD002F5C6
:100624009A32904207D002F58062904203D002F5DC
:100634008062904203D123F44073CA68134323F0C9
:1006440080034A69134303608B68C3620B68836247
:10065400044B984202D00123436170470B69036342
:10066400F9E700BF00000140B0B110B5044690F8AE
:100674003D3063B1022384F83D30214651F8040B28
:10068400FFF7A4FF012384F83D30002010BD80F85B
:100694003C30FFF7D7FEEDE70120704730B4036A22
:1006A40023F010030362036A4468826922F4E64279
:1006B4000D6842EA052223F020038D6843EA0513FE
:1006C4000E4DA84209D00D4DA8420ED0446082615F
:1006D4004A688263036230BC704723F08003CD68AC
:1006E40043EA051323F04003EDE724F440644D6925
:1006F40044EA85048D6944EA8504E7E70000014083
:1007040038B590F83C30012B66D004460D460123E1
:1007140080F83C30022380F83D300C2A1AD8DFE8F8
:1007240002F0071919192019191934191919470050
:100734000068FFF7C7FE2268936943F008039361DA
:100744002268936923F004039361226893692969F9
:100754000B439361012384F83D30002084F83C006E
:1007640038BD0068FFF79AFF2268936943F4006379
:1007740093612268936923F4806393612268936987
:10078400296943EA01239361E4E70068FFF7C8FE9F
:100794002268D36943F00803D3612268D36923F044
:1007A4000403D3612268D36929690B43D361D1E778
:1007B4000068FFF7E7FE2268D36943F40063D3615E
:1007C4002268D36923F48063D3612268D3692969D9
:1007D40043EA0123D361BDE70220C1E790F83C302E
:1007E400012B35D010B4012380F83C30022380F86B
:1007F4003D3003685A689C6822F0700C0A6842EA2B
:100804000C025A600368134A934212D0B3F1804F2A
:100814000FD0A2F57C4293420BD002F58062934242
:1008240007D002F58062934203D002F59A329342D4
:1008340004D124F080044A6814439C60012380F8A6
:100844003D30002380F83C3018465DF8044B704777
:100854000220704700000140002800F0DA8170B5E2
:1008640082B00446036813F0010F3BD09F4B9B6892
:1008740003F00C03042B2CD09C4B9B6803F00C035B
:10088400082B21D06368B3F5803F4FD0B3F5A02F78
:1008940052D0964B1A6822F480321A601A6822F4F5
:1008A40080221A606368002B50D000F05BFC054680
:1008B4008E4B1B6813F4003F14D100F053FC401B13
:1008C4006428F5D90320ABE1884B5B6813F4800FEF
:1008D400D8D0864B1B6813F4003F03D06368002B09
:1008E40000F09981236813F0020F54D07F4B9B686A
:1008F40013F00C0F3ED07D4B9B6803F00C03082BC8
:1009040033D0E368002B68D0794B01221A6000F0E1
:1009140029FC0546754B1B6813F0020F54D100F0F7
:1009240021FC401B0228F5D9032079E16F4A1368A2
:1009340043F480331360B5E76C4B1A6842F48022A9
:100944001A601A6842F480321A60ABE700F00AFCBD
:100954000546664B1B6813F4003FC3D000F002FC4D
:10096400401B6428F5D903205AE1604B5B6813F4FB
:10097400800FC6D15D4B1B6813F0020F03D0E368F0
:10098400012B40F04A81594A136823F0F803216986
:1009940043EAC1031360236813F0080F42D063696C
:1009A4006BB3534B0122C3F8802E00F0DBFB0546EA
:1009B4004E4B5B6F13F0020F34D100F0D3FB401B9E
:1009C4000228F5D903202BE1484A136823F0F803E1
:1009D400216943EAC1031360DDE7454B00221A6035
:1009E40000F0C0FB0546414B1B6813F0020FD2D048
:1009F40000F0B8FB401B0228F5D9032010E13C4B62
:100A04000022C3F8802E00F0ADFB0546374B5B6F28
:100A140013F0020F06D000F0A5FB401B0228F5D905
:100A24000320FDE0236813F0040F77D02F4B1B6CD9
:100A340013F0805F33D1002301932C4B1A6C42F0E6
:100A440080521A641B6C03F080530193019B0125AF
:100A5400284B1B6813F4807F23D0A368012B34D068
:100A6400052B38D0214B1A6F22F001021A671A6F36
:100A740022F004021A67A368002B3DD000F072FB39
:100A840006461A4B1B6F13F0020F46D100F06AFBA7
:100A9400801B41F288339842F3D90320C0E000253B
:100AA400D6E7144A136843F48073136000F05AFBCA
:100AB4000646104B1B6813F4807FCED100F052FB26
:100AC400801B0228F5D90320AAE0084A136F43F0DB
:100AD40001031367CFE7054B1A6F42F004021A674C
:100AE4001A6F42F001021A67C5E700BF00380240DE
:100AF400000047420070004000F034FB06464F4BB4
:100B04001B6F13F0020F08D000F02CFB801B41F286
:100B140088339842F3D9032082E0E5B9A369002B16
:100B24007DD0464A926802F00C02082A51D0022B6A
:100B340017D0434B00221A6600F014FB04463F4BC7
:100B44001B6813F0007F42D000F00CFB001B02284E
:100B5400F5D9032064E0394A136C23F080531364FD
:100B6400DCE7374B00221A6600F0FCFA0546334BEB
:100B74001B6813F0007F06D000F0F4FA401B022833
:100B8400F5D903204CE0E369226A1343626A43EA1D
:100B94008213A26A5208013A43EA0243E26A43EA30
:100BA4000263264A5360264B01221A6600F0DAFAE1
:100BB4000446224B1B6813F0007F06D100F0D2FAE2
:100BC400001B0228F5D903202AE0002028E0002099
:100BD40026E0012B26D0194B5B6803F48001E269FF
:100BE400914221D103F03F02216A8A421ED1616AF7
:100BF40047F6C0721A408A421AD103F44032A16AFD
:100C04008A4217D103F07063E26A934214D1002040
:100C140006E001207047012002E0012000E00020EE
:100C240002B070BD0120FBE70120F9E70120F7E7DE
:100C34000120F5E70120F3E70120F1E70038024045
:100C44000000474208B5254B9B6803F00C03042BB6
:100C54003FD0082B3FD1214B5A6802F03F025B681A
:100C640013F4800F12D01D4B5968C1F388111C482E
:100C74000023A1FB0001FFF78BFA184B5B68C3F359
:100C8400014301335B00B0FBF3F025E0134B5968DB
:100C9400C1F3881C4FEA4C11B1EB0C006EEB0E0E45
:100CA4004FEA8E1343EA90638101091A63EB0E0342
:100CB400DB0043EA5173C90011EB0C0C43F1000350
:100CC400990200234FEA8C2041EA9C51FFF760FA15
:100CD400D3E7034800E0034808BD00BF00380240E2
:100CE40040787D010024F400002800F09B8070B55A
:100CF4000D4604464F4B1B6803F00F038B4208D28A
:100D0400CBB24C4A1370136803F00F038B4240F0CC
:100D14008B80236813F0020F17D013F0040F04D054
:100D2400454A936843F4E0539360236813F0080F33
:100D340004D0414A936843F4604393603E4A936805
:100D440023F0F003A1680B439360236813F0010FB1
:100D540032D06368012B21D09A1E012A25D9364A44
:100D6400126812F0020F61D033498A6822F003023C
:100D740013438B6000F0F6F906462F4B9B6803F093
:100D84000C036268B3EB820F16D000F0EBF9801B02
:100D940041F288339842F0D9032042E0264A12688F
:100DA40012F4003FE0D101203BE0234A126812F024
:100DB400007FD9D1012034E01E4B1B6803F00F03E0
:100DC400AB4207D9EAB21B4B1A701B6803F00F033E
:100DD400AB422DD1236813F0040F06D0164A936852
:100DE40023F4E053E1680B439360236813F0080F86
:100DF40007D0114A936823F46043216943EAC1038D
:100E04009360FFF71FFF0C4B9B68C3F303130B4A5C
:100E1400D35CD8400A4B18600A4B186800F056F9A6
:100E2400002070BD012070470120FAE70120F8E797
:100E34000120F6E7003C024000380240001500089B
:100E4400080000200400002000230F2B00F2C880BB
:100E5400F0B583B03AE0042200E00022AA40324315
:100E64000234604D45F824205F4A14686FEA0C028E
:100E740024EA0C054E6816F4803F01D04CEA0405C0
:100E8400594C2560646802EA04054E6816F4003F74
:100E940001D04CEA0405544C6560A46802EA0405D8
:100EA4004E6816F4801F01D04CEA04054E4CA56030
:100EB400E46822404D6815F4001F01D04CEA040296
:100EC400494CE26001330F2B00F2888001229A40E2
:100ED4000C6804EA020C32EA0404F3D14C68651E7F
:100EE400012D03D9112C01D0122C12D185685E007A
:100EF4000324B44025EA0405CC68B4402C43846040
:100F0400456825EA02054C68C4F300129A402A4356
:100F14004260C5684FEA430E032404FA0EF4E24328
:100F240025EA04058C6804FA0EF42C43C4604C686A
:100F3400022C01D0122C0FD1DD08083550F8257091
:100F440003F00704A6000F24B44027EA04070C6941
:100F5400B4403C4340F82540046814404A6802F019
:100F6400030202FA0EF2224302604A6812F0805F22
:100F7400A8D0002201921D4A546C44F48044546465
:100F8400526C02F480420192019A9C08A51C154AF5
:100F940052F8256003F0030295000F22AA4026EAC6
:100FA4000206134A90423FF458AF02F58062904221
:100FB4000ED002F5806290420CD002F5806290421D
:100FC4000AD002F5806290423FF445AF072245E71C
:100FD400012243E7022241E703223FE703B0F0BDC9
:100FE400704700BF00380140003C01400038024017
:100FF400000002400369194201D00120704700201B
:1010040070470AB18161704709048161704700002B
:10101400074AD36823F4E0631B041B0C000200F4AA
:10102400E060034343F0BF6343F40033D36070478D
:1010340000ED00E000B5194BDB68C3F30223C3F1F4
:10104400070CBCF1040F28BF4FF0040C03F1040E8D
:10105400BEF1060F18D9033B4FF0FF3E0EFA0CFC0D
:1010640021EA0C0199400EFA03F322EA030319431F
:1010740000280BDB0901C9B200F1604000F56140B2
:1010840080F800135DF804FB0023E5E700F00F008F
:101094000901C9B2024B1954F4E700BF00ED00E0A6
:1010A40014ED00E00138B0F1807F0BD24FF0E02363
:1010B4005861054AF02182F8231000209861072224
:1010C4001A6170470120704700ED00E010B5044636
:1010D4000E4B18784FF47A73B3FBF0F30C4A106894
:1010E400B0FBF3F0FFF7DEFF68B90F2C01D9012044
:1010F4000AE0002221464FF0FF30FFF79BFF054B2B
:101104001C60002000E0012010BD00BF0000002092
:10111400080000200400002008B50B4B1A6842F4B4
:1011240000721A601A6842F480621A601A6842F403
:1011340080721A600320FFF76BFF0020FFF7C6FFE1
:10114400FFF764F9002008BD003C0240034A11681F
:10115400034B1B780B441360704700BF68000020EA
:1011640000000020014B1868704700BF6800002091
:10117400054BD3F8882042F47002C3F888204FF05E
:1011840000629A60704700BF00ED00E0DFF834D0E1
:10119400002103E00C4B5B58435004310B480C4BCB
:1011A40042189A42F6D30B4A02E0002342F8043B69
:1011B400094B9A42F9D3FFF7DBFF00F011F8FFF770
:1011C400F9F8704700800120201500080000002075
:1011D4000C0000200C0000206C000020FEE7000042
:1011E40070B50D4D0D4C641BA4100026A64209D108
:1011F4000B4D0C4C00F076F9641BA4100026A6429B
:1012040005D170BD55F8043B98470136EEE755F813
:10121400043B98470136F2E7181500081815000832
:10122400181500081C15000802440346934200D117
:10123400704703F8011BF9E72DE9F04F099E884632
:101244008E46154604461946002B40F0C780424599
:10125400B2FA82F746D94FB1C7F1200C08FA07F366
:1012640020FA0CFCBD404CEA030EBC404FEA154882
:101274001FFA85FCBEFBF8F9220C08FB19E309FBF5
:101284000CFA42EA03439A4528D9EB1809F1FF30D6
:1012940004D29A4502D9A9F102002B44A3EB0A0314
:1012A400A4B2B3FBF8F208FB123302FB0CFC44EAD1
:1012B4000344A44514D92C1902F1FF3303D2A445E5
:1012C40001D9931E2C44A4EB0C0443EA00401EB144
:1012D400FC40002334607360BDE8F08F4846DDE7CE
:1012E4001346F0E702B9FFDE8FBBA8EB020301212E
:1012F4004FEA154EAAB2B3FBFEFC200C0EFB1C33C6
:101304000CFB02F840EA0343984563D9EB180CF14F
:10131400FF3004D2984502D9ACF102002B44A3EB70
:101324000803A4B2B3FBFEFC0EFB1C330CFB02F25D
:1013340044EA0344A2424FD92C190CF1FF3304D2DE
:10134400A24202D9ACF102032C44A41ABDE7C7F1AE
:10135400200C28FA0CF908FA07F320FA0CFCBD401B
:101364004CEA03024FEA154EABB2B9FBFEFC110C7A
:101374000EFB1C900CFB03F841EA0040804504FA84
:1013840007F423D928180CF1FF3104D2804502D97F
:10139400ACF102012844A0EB080092B2B0FBFEFCC1
:1013A4000EFB1C000CFB03F842EA004398450FD9DE
:1013B400EB180CF1FF3204D2984502D9ACF10202C9
:1013C4002B44A3EB080342EA014191E76146E2E7BB
:1013D4006246F6E76046A2E76346B6E7434505D9A9
:1013E4000EB1C6E900080021084675E7B3FA83FC8C
:1013F400BCF1000F10D1434501D382420AD8841AAC
:1014040068EB030301209E46002E68D0C6E9004E17
:10141400002161E76046F7E7CCF1200E03FA0CF3F4
:1014240022FA0EF41C4320FA0EF108FA0CF328FAFF
:101434000EFB19434FEA144902FA0CF5BBFBF9F809
:10144400A3B209FB18BB0A0C08FB03FA42EA0B42DD
:10145400924500FA0CF73ED9A21808F1FF3004D2E5
:10146400924502D9A8F102002244A2EB0A0289B2F1
:10147400B2FBF9F809FB182208FB03F341EA024224
:1014840093422AD9A21808F1FF3104D2934202D917
:10149400A8F10201224441EA0040A0FB0598D21AB7
:1014A40042454B46414602D306D14F4504D2B9EBDF
:1014B400050368EB040101388EB1FC1A62EB0107E5
:1014C40007FA0EFE24FA0CF34EEA030327FA0CF78C
:1014D400C6E900379CE74046C7E74146DBE73146AB
:1014E400FAE60000F8B500BFF8BC08BC9E46704799
:0C14F400F8B500BFF8BC08BC9E4670476D
:1015000000000000000000000102030406070809B3
:081510002CFDFF7F010000002B
:04151800ED010008D9
:04151C00C9010008F9
:0C15200001000000100000000024F40096
:04000005080011914D
:00000001FF
